{
  "contractName": "Auction",
  "abi": [
    {
      "anonymous": false,
      "inputs": [
        {
          "indexed": false,
          "internalType": "uint256",
          "name": "num",
          "type": "uint256"
        },
        {
          "indexed": false,
          "internalType": "address",
          "name": "beneficiary",
          "type": "address"
        },
        {
          "indexed": false,
          "internalType": "address",
          "name": "winner",
          "type": "address"
        },
        {
          "indexed": false,
          "internalType": "uint256",
          "name": "price",
          "type": "uint256"
        },
        {
          "indexed": false,
          "internalType": "uint256",
          "name": "timestamp",
          "type": "uint256"
        }
      ],
      "name": "AuctionEnded",
      "type": "event"
    },
    {
      "anonymous": false,
      "inputs": [
        {
          "indexed": false,
          "internalType": "uint256",
          "name": "num",
          "type": "uint256"
        },
        {
          "indexed": false,
          "internalType": "address",
          "name": "winner",
          "type": "address"
        }
      ],
      "name": "Claimed",
      "type": "event"
    },
    {
      "anonymous": false,
      "inputs": [
        {
          "indexed": false,
          "internalType": "uint256",
          "name": "num",
          "type": "uint256"
        },
        {
          "indexed": false,
          "internalType": "address",
          "name": "bidder",
          "type": "address"
        },
        {
          "indexed": false,
          "internalType": "uint256",
          "name": "price",
          "type": "uint256"
        },
        {
          "indexed": false,
          "internalType": "uint256",
          "name": "timestamp",
          "type": "uint256"
        }
      ],
      "name": "HighestBidChanged",
      "type": "event"
    },
    {
      "anonymous": false,
      "inputs": [
        {
          "indexed": false,
          "internalType": "uint256",
          "name": "num",
          "type": "uint256"
        },
        {
          "indexed": false,
          "internalType": "enum Auction.AucStatus",
          "name": "sts",
          "type": "uint8"
        }
      ],
      "name": "UpdateStatus",
      "type": "event"
    },
    {
      "inputs": [
        {
          "internalType": "uint256",
          "name": "",
          "type": "uint256"
        }
      ],
      "name": "Auctions",
      "outputs": [
        {
          "internalType": "uint256",
          "name": "Aucid",
          "type": "uint256"
        },
        {
          "internalType": "address",
          "name": "creater",
          "type": "address"
        },
        {
          "internalType": "uint256",
          "name": "item",
          "type": "uint256"
        },
        {
          "internalType": "string",
          "name": "itemname",
          "type": "string"
        },
        {
          "internalType": "uint256",
          "name": "timeBegin",
          "type": "uint256"
        },
        {
          "internalType": "uint256",
          "name": "timeEnd",
          "type": "uint256"
        },
        {
          "internalType": "uint256",
          "name": "startPrice",
          "type": "uint256"
        },
        {
          "internalType": "address",
          "name": "highestBidder",
          "type": "address"
        },
        {
          "internalType": "uint256",
          "name": "highestBid",
          "type": "uint256"
        },
        {
          "internalType": "uint256",
          "name": "secondBid",
          "type": "uint256"
        },
        {
          "internalType": "uint256",
          "name": "totalBids",
          "type": "uint256"
        },
        {
          "internalType": "enum Auction.AucStatus",
          "name": "status",
          "type": "uint8"
        }
      ],
      "stateMutability": "view",
      "type": "function",
      "constant": true
    },
    {
      "inputs": [
        {
          "internalType": "uint256",
          "name": "",
          "type": "uint256"
        }
      ],
      "name": "Tics",
      "outputs": [
        {
          "internalType": "address",
          "name": "owner",
          "type": "address"
        },
        {
          "internalType": "uint256",
          "name": "id",
          "type": "uint256"
        },
        {
          "internalType": "string",
          "name": "name",
          "type": "string"
        },
        {
          "internalType": "string",
          "name": "category",
          "type": "string"
        },
        {
          "internalType": "string",
          "name": "image",
          "type": "string"
        },
        {
          "internalType": "uint256",
          "name": "Nowner",
          "type": "uint256"
        },
        {
          "internalType": "enum Auction.Status",
          "name": "statu",
          "type": "uint8"
        },
        {
          "internalType": "enum Auction.Conditions",
          "name": "condition",
          "type": "uint8"
        }
      ],
      "stateMutability": "view",
      "type": "function",
      "constant": true
    },
    {
      "inputs": [],
      "name": "numAuc",
      "outputs": [
        {
          "internalType": "uint256",
          "name": "",
          "type": "uint256"
        }
      ],
      "stateMutability": "view",
      "type": "function",
      "constant": true
    },
    {
      "inputs": [],
      "name": "numTic",
      "outputs": [
        {
          "internalType": "uint256",
          "name": "",
          "type": "uint256"
        }
      ],
      "stateMutability": "view",
      "type": "function",
      "constant": true
    },
    {
      "inputs": [
        {
          "internalType": "address",
          "name": "",
          "type": "address"
        }
      ],
      "name": "pendingReturn",
      "outputs": [
        {
          "internalType": "uint256",
          "name": "",
          "type": "uint256"
        }
      ],
      "stateMutability": "view",
      "type": "function",
      "constant": true
    },
    {
      "inputs": [
        {
          "internalType": "string",
          "name": "_name",
          "type": "string"
        },
        {
          "internalType": "string",
          "name": "_category",
          "type": "string"
        },
        {
          "internalType": "string",
          "name": "_image",
          "type": "string"
        }
      ],
      "name": "castTic",
      "outputs": [
        {
          "internalType": "bool",
          "name": "",
          "type": "bool"
        }
      ],
      "stateMutability": "nonpayable",
      "type": "function"
    },
    {
      "inputs": [
        {
          "internalType": "uint256",
          "name": "item",
          "type": "uint256"
        },
        {
          "internalType": "uint256",
          "name": "timeBegin",
          "type": "uint256"
        },
        {
          "internalType": "uint256",
          "name": "timeEnd",
          "type": "uint256"
        },
        {
          "internalType": "uint256",
          "name": "startPrice",
          "type": "uint256"
        }
      ],
      "name": "newAuction",
      "outputs": [
        {
          "internalType": "bool",
          "name": "",
          "type": "bool"
        }
      ],
      "stateMutability": "nonpayable",
      "type": "function"
    },
    {
      "inputs": [
        {
          "internalType": "uint256",
          "name": "num",
          "type": "uint256"
        },
        {
          "internalType": "uint256",
          "name": "time",
          "type": "uint256"
        }
      ],
      "name": "bidOnce",
      "outputs": [],
      "stateMutability": "payable",
      "type": "function",
      "payable": true
    },
    {
      "inputs": [],
      "name": "withDraw",
      "outputs": [
        {
          "internalType": "bool",
          "name": "",
          "type": "bool"
        }
      ],
      "stateMutability": "payable",
      "type": "function",
      "payable": true
    },
    {
      "inputs": [
        {
          "internalType": "uint256",
          "name": "num",
          "type": "uint256"
        },
        {
          "internalType": "uint256",
          "name": "tic",
          "type": "uint256"
        }
      ],
      "name": "endAuction",
      "outputs": [],
      "stateMutability": "payable",
      "type": "function",
      "payable": true
    },
    {
      "inputs": [
        {
          "internalType": "uint256",
          "name": "num",
          "type": "uint256"
        },
        {
          "internalType": "uint256",
          "name": "tic",
          "type": "uint256"
        }
      ],
      "name": "claim",
      "outputs": [
        {
          "internalType": "bool",
          "name": "",
          "type": "bool"
        }
      ],
      "stateMutability": "nonpayable",
      "type": "function"
    },
    {
      "inputs": [
        {
          "internalType": "uint256",
          "name": "index",
          "type": "uint256"
        }
      ],
      "name": "getHistory",
      "outputs": [
        {
          "internalType": "address[]",
          "name": "history",
          "type": "address[]"
        }
      ],
      "stateMutability": "view",
      "type": "function",
      "constant": true
    },
    {
      "inputs": [
        {
          "internalType": "uint256",
          "name": "c",
          "type": "uint256"
        }
      ],
      "name": "checkout",
      "outputs": [
        {
          "internalType": "bool",
          "name": "",
          "type": "bool"
        }
      ],
      "stateMutability": "nonpayable",
      "type": "function"
    }
  ],
  "bytecode": "0x608060405260008055600060025534801561001957600080fd5b506128dd806100296000396000f3fe6080604052600436106100c25760003560e01c8063c34902631161007f578063c937f9fd11610059578063c937f9fd14610280578063cfc1274a146102bd578063d45eb1b2146102e8578063e8cd181f14610325576100c2565b8063c3490263146101c2578063c7523483146101ff578063c8691b2a14610243576100c2565b80630fdb1c10146100c75780631cda50bd146100e5578063437e72df1461010157806347afe4371461013e5780634c9ba8521461015a57806380a47d7914610197575b600080fd5b6100cf61036d565b6040516100dc9190611ca6565b60405180910390f35b6100ff60048036038101906100fa9190611d0b565b610509565b005b34801561010d57600080fd5b5061012860048036038101906101239190611e91565b61091f565b6040516101359190611ca6565b60405180910390f35b61015860048036038101906101539190611d0b565b610bee565b005b34801561016657600080fd5b50610181600480360381019061017c9190611f38565b610dbe565b60405161018e9190611ca6565b60405180910390f35b3480156101a357600080fd5b506101ac61102a565b6040516101b99190611f74565b60405180910390f35b3480156101ce57600080fd5b506101e960048036038101906101e49190611d0b565b611030565b6040516101f69190611ca6565b60405180910390f35b34801561020b57600080fd5b5061022660048036038101906102219190611f38565b61120f565b60405161023a989796959493929190612117565b60405180910390f35b34801561024f57600080fd5b5061026a60048036038101906102659190611f38565b611439565b6040516102779190612268565b60405180910390f35b34801561028c57600080fd5b506102a760048036038101906102a291906122b6565b6114ec565b6040516102b49190611f74565b60405180910390f35b3480156102c957600080fd5b506102d2611504565b6040516102df9190611f74565b60405180910390f35b3480156102f457600080fd5b5061030f600480360381019061030a91906122e3565b61150a565b60405161031c9190611ca6565b60405180910390f35b34801561033157600080fd5b5061034c60048036038101906103479190611f38565b611a19565b6040516103649c9b9a99989796959493929190612392565b60405180910390f35b600080600460003373ffffffffffffffffffffffffffffffffffffffff1673ffffffffffffffffffffffffffffffffffffffff16815260200190815260200160002054116103f0576040517f08c379a00000000000000000000000000000000000000000000000000000000081526004016103e79061249f565b60405180910390fd5b6000600460003373ffffffffffffffffffffffffffffffffffffffff1673ffffffffffffffffffffffffffffffffffffffff1681526020019081526020016000205490506000600460003373ffffffffffffffffffffffffffffffffffffffff1673ffffffffffffffffffffffffffffffffffffffff168152602001908152602001600020819055503373ffffffffffffffffffffffffffffffffffffffff166108fc829081150290604051600060405180830381858888f193505050506105005780600460003373ffffffffffffffffffffffffffffffffffffffff1673ffffffffffffffffffffffffffffffffffffffff168152602001908152602001600020819055506000915050610506565b60019150505b90565b60006003838154811061051f5761051e6124bf565b5b90600052602060002090600d020190508060040154821015610576576040517f08c379a000000000000000000000000000000000000000000000000000000000815260040161056d9061253a565b60405180910390fd5b80600501548211156105bd576040517f08c379a00000000000000000000000000000000000000000000000000000000081526004016105b4906125a6565b60405180910390fd5b80600801543411610603576040517f08c379a00000000000000000000000000000000000000000000000000000000081526004016105fa90612612565b60405180910390fd5b600160038481548110610619576106186124bf565b5b90600052602060002090600d0201600a0160008282546106399190612661565b9250508190555060038381548110610654576106536124bf565b5b90600052602060002090600d0201600c01339080600181540180825580915050600190039060005260206000200160009091909190916101000a81548173ffffffffffffffffffffffffffffffffffffffff021916908373ffffffffffffffffffffffffffffffffffffffff160217905550600073ffffffffffffffffffffffffffffffffffffffff16600384815481106106f2576106f16124bf565b5b90600052602060002090600d020160070160009054906101000a900473ffffffffffffffffffffffffffffffffffffffff1673ffffffffffffffffffffffffffffffffffffffff161461084f5760038381548110610753576107526124bf565b5b90600052602060002090600d020160080154600460006003868154811061077d5761077c6124bf565b5b90600052602060002090600d020160070160009054906101000a900473ffffffffffffffffffffffffffffffffffffffff1673ffffffffffffffffffffffffffffffffffffffff1673ffffffffffffffffffffffffffffffffffffffff16815260200190815260200160002060008282546107f89190612661565b9250508190555060038381548110610813576108126124bf565b5b90600052602060002090600d02016008015460038481548110610839576108386124bf565b5b90600052602060002090600d0201600901819055505b3460038481548110610864576108636124bf565b5b90600052602060002090600d020160080181905550336003848154811061088e5761088d6124bf565b5b90600052602060002090600d020160070160006101000a81548173ffffffffffffffffffffffffffffffffffffffff021916908373ffffffffffffffffffffffffffffffffffffffff1602179055507f56d10dde7862e7ff93cbde055d02c8c9aceb39cef97de0cd2b533f45fa7381968333348560405161091294939291906126b7565b60405180910390a1505050565b600060016040518061012001604052803373ffffffffffffffffffffffffffffffffffffffff168152602001600054815260200186815260200185815260200184815260200160018152602001600060028111156109805761097f612058565b5b81526020016000600181111561099957610998612058565b5b8152602001600067ffffffffffffffff8111156109b9576109b8611d66565b5b6040519080825280602002602001820160405280156109e75781602001602082028036833780820191505090505b50815250908060018154018082558091505060019003906000526020600020906008020160009091909190915060008201518160000160006101000a81548173ffffffffffffffffffffffffffffffffffffffff021916908373ffffffffffffffffffffffffffffffffffffffff160217905550602082015181600101556040820151816002019080519060200190610a81929190611b5e565b506060820151816003019080519060200190610a9e929190611b5e565b506080820151816004019080519060200190610abb929190611b5e565b5060a0820151816005015560c08201518160060160006101000a81548160ff02191690836002811115610af157610af0612058565b5b021790555060e08201518160060160016101000a81548160ff02191690836001811115610b2157610b20612058565b5b0217905550610100820151816007019080519060200190610b43929190611be4565b505050600160005481548110610b5c57610b5b6124bf565b5b9060005260206000209060080201600701339080600181540180825580915050600190039060005260206000200160009091909190916101000a81548173ffffffffffffffffffffffffffffffffffffffff021916908373ffffffffffffffffffffffffffffffffffffffff1602179055506001600054610bdd9190612661565b600081905550600190509392505050565b6003808381548110610c0357610c026124bf565b5b90600052602060002090600d0201600b0160006101000a81548160ff02191690836003811115610c3657610c35612058565b5b0217905550600073ffffffffffffffffffffffffffffffffffffffff1660038381548110610c6757610c666124bf565b5b90600052602060002090600d020160070160009054906101000a900473ffffffffffffffffffffffffffffffffffffffff1673ffffffffffffffffffffffffffffffffffffffff161415610d0857600260018281548110610ccb57610cca6124bf565b5b906000526020600020906008020160060160006101000a81548160ff02191690836002811115610cfe57610cfd612058565b5b0217905550610dba565b60038281548110610d1c57610d1b6124bf565b5b90600052602060002090600d020160010160009054906101000a900473ffffffffffffffffffffffffffffffffffffffff1673ffffffffffffffffffffffffffffffffffffffff166108fc60038481548110610d7b57610d7a6124bf565b5b90600052602060002090600d0201600801549081150290604051600060405180830381858888f19350505050158015610db8573d6000803e3d6000fd5b505b5050565b6000806000905060005b6002548110156110205760038181548110610de657610de56124bf565b5b90600052602060002090600d0201600401548410158015610e5d575060006003811115610e1657610e15612058565b5b60038281548110610e2a57610e296124bf565b5b90600052602060002090600d0201600b0160009054906101000a900460ff166003811115610e5b57610e5a612058565b5b145b15610eef57600160038281548110610e7857610e776124bf565b5b90600052602060002090600d0201600b0160006101000a81548160ff02191690836003811115610eab57610eaa612058565b5b0217905550600191507f1ec5c05690dbdf3fe6eeaa13c3026d2706bba8ff773391bf70f15b407fb16588816001604051610ee69291906126fc565b60405180910390a15b60038181548110610f0357610f026124bf565b5b90600052602060002090600d0201600501548410158015610f7b575060026003811115610f3357610f32612058565b5b60038281548110610f4757610f466124bf565b5b90600052602060002090600d0201600b0160009054906101000a900460ff166003811115610f7857610f77612058565b5b14155b1561100d57600260038281548110610f9657610f956124bf565b5b90600052602060002090600d0201600b0160006101000a81548160ff02191690836003811115610fc957610fc8612058565b5b0217905550600191507f1ec5c05690dbdf3fe6eeaa13c3026d2706bba8ff773391bf70f15b407fb165888160026040516110049291906126fc565b60405180910390a15b808061101890612725565b915050610dc8565b5080915050919050565b60025481565b6000600260038481548110611048576110476124bf565b5b90600052602060002090600d0201600b0160006101000a81548160ff0219169083600381111561107b5761107a612058565b5b021790555060018281548110611094576110936124bf565b5b9060005260206000209060080201600701339080600181540180825580915050600190039060005260206000200160009091909190916101000a81548173ffffffffffffffffffffffffffffffffffffffff021916908373ffffffffffffffffffffffffffffffffffffffff160217905550336001838154811061111b5761111a6124bf565b5b906000526020600020906008020160000160006101000a81548173ffffffffffffffffffffffffffffffffffffffff021916908373ffffffffffffffffffffffffffffffffffffffff1602179055506000600183815481106111805761117f6124bf565b5b906000526020600020906008020160060160006101000a81548160ff021916908360028111156111b3576111b2612058565b5b021790555060018083815481106111cd576111cc6124bf565b5b906000526020600020906008020160060160016101000a81548160ff02191690836001811115611200576111ff612058565b5b02179055506001905092915050565b6001818154811061121f57600080fd5b90600052602060002090600802016000915090508060000160009054906101000a900473ffffffffffffffffffffffffffffffffffffffff169080600101549080600201805461126e9061279d565b80601f016020809104026020016040519081016040528092919081815260200182805461129a9061279d565b80156112e75780601f106112bc576101008083540402835291602001916112e7565b820191906000526020600020905b8154815290600101906020018083116112ca57829003601f168201915b5050505050908060030180546112fc9061279d565b80601f01602080910402602001604051908101604052809291908181526020018280546113289061279d565b80156113755780601f1061134a57610100808354040283529160200191611375565b820191906000526020600020905b81548152906001019060200180831161135857829003601f168201915b50505050509080600401805461138a9061279d565b80601f01602080910402602001604051908101604052809291908181526020018280546113b69061279d565b80156114035780601f106113d857610100808354040283529160200191611403565b820191906000526020600020905b8154815290600101906020018083116113e657829003601f168201915b5050505050908060050154908060060160009054906101000a900460ff16908060060160019054906101000a900460ff16905088565b60606001828154811061144f5761144e6124bf565b5b90600052602060002090600802016007018054806020026020016040519081016040528092919081815260200182805480156114e057602002820191906000526020600020905b8160009054906101000a900473ffffffffffffffffffffffffffffffffffffffff1673ffffffffffffffffffffffffffffffffffffffff1681526020019060010190808311611496575b50505050509050919050565b60046020528060005260406000206000915090505481565b60005481565b60008284111561154f576040517f08c379a00000000000000000000000000000000000000000000000000000000081526004016115469061281b565b60405180910390fd5b6001600281111561156357611562612058565b5b60018681548110611577576115766124bf565b5b906000526020600020906008020160060160009054906101000a900460ff1660028111156115a8576115a7612058565b5b14156115e9576040517f08c379a00000000000000000000000000000000000000000000000000000000081526004016115e090612887565b60405180910390fd5b6003604051806101a0016040528060025481526020013373ffffffffffffffffffffffffffffffffffffffff16815260200187815260200160018881548110611635576116346124bf565b5b906000526020600020906008020160020180546116519061279d565b80601f016020809104026020016040519081016040528092919081815260200182805461167d9061279d565b80156116ca5780601f1061169f576101008083540402835291602001916116ca565b820191906000526020600020905b8154815290600101906020018083116116ad57829003601f168201915b50505050508152602001868152602001858152602001848152602001600073ffffffffffffffffffffffffffffffffffffffff168152602001848152602001848152602001600081526020016000600381111561172a57611729612058565b5b8152602001600067ffffffffffffffff81111561174a57611749611d66565b5b6040519080825280602002602001820160405280156117785781602001602082028036833780820191505090505b5081525090806001815401808255809150506001900390600052602060002090600d02016000909190919091506000820151816000015560208201518160010160006101000a81548173ffffffffffffffffffffffffffffffffffffffff021916908373ffffffffffffffffffffffffffffffffffffffff16021790555060408201518160020155606082015181600301908051906020019061181c929190611b5e565b506080820151816004015560a0820151816005015560c0820151816006015560e08201518160070160006101000a81548173ffffffffffffffffffffffffffffffffffffffff021916908373ffffffffffffffffffffffffffffffffffffffff1602179055506101008201518160080155610120820151816009015561014082015181600a015561016082015181600b0160006101000a81548160ff021916908360038111156118cf576118ce612058565b5b021790555061018082015181600c0190805190602001906118f1929190611be4565b505050834210611902576001611905565b60005b60036002548154811061191b5761191a6124bf565b5b90600052602060002090600d0201600b0160006101000a81548160ff0219169083600381111561194e5761194d612058565b5b02179055508360036002548154811061196a576119696124bf565b5b90600052602060002090600d02016004018190555082600360025481548110611996576119956124bf565b5b90600052602060002090600d02016005018190555060016002546119ba9190612661565b60028190555060018086815481106119d5576119d46124bf565b5b906000526020600020906008020160060160006101000a81548160ff02191690836002811115611a0857611a07612058565b5b021790555060019050949350505050565b60038181548110611a2957600080fd5b90600052602060002090600d02016000915090508060000154908060010160009054906101000a900473ffffffffffffffffffffffffffffffffffffffff1690806002015490806003018054611a7e9061279d565b80601f0160208091040260200160405190810160405280929190818152602001828054611aaa9061279d565b8015611af75780601f10611acc57610100808354040283529160200191611af7565b820191906000526020600020905b815481529060010190602001808311611ada57829003601f168201915b5050505050908060040154908060050154908060060154908060070160009054906101000a900473ffffffffffffffffffffffffffffffffffffffff169080600801549080600901549080600a01549080600b0160009054906101000a900460ff1690508c565b828054611b6a9061279d565b90600052602060002090601f016020900481019282611b8c5760008555611bd3565b82601f10611ba557805160ff1916838001178555611bd3565b82800160010185558215611bd3579182015b82811115611bd2578251825591602001919060010190611bb7565b5b509050611be09190611c6e565b5090565b828054828255906000526020600020908101928215611c5d579160200282015b82811115611c5c5782518260006101000a81548173ffffffffffffffffffffffffffffffffffffffff021916908373ffffffffffffffffffffffffffffffffffffffff16021790555091602001919060010190611c04565b5b509050611c6a9190611c6e565b5090565b5b80821115611c87576000816000905550600101611c6f565b5090565b60008115159050919050565b611ca081611c8b565b82525050565b6000602082019050611cbb6000830184611c97565b92915050565b6000604051905090565b600080fd5b600080fd5b6000819050919050565b611ce881611cd5565b8114611cf357600080fd5b50565b600081359050611d0581611cdf565b92915050565b60008060408385031215611d2257611d21611ccb565b5b6000611d3085828601611cf6565b9250506020611d4185828601611cf6565b9150509250929050565b600080fd5b600080fd5b6000601f19601f8301169050919050565b7f4e487b7100000000000000000000000000000000000000000000000000000000600052604160045260246000fd5b611d9e82611d55565b810181811067ffffffffffffffff82111715611dbd57611dbc611d66565b5b80604052505050565b6000611dd0611cc1565b9050611ddc8282611d95565b919050565b600067ffffffffffffffff821115611dfc57611dfb611d66565b5b611e0582611d55565b9050602081019050919050565b82818337600083830152505050565b6000611e34611e2f84611de1565b611dc6565b905082815260208101848484011115611e5057611e4f611d50565b5b611e5b848285611e12565b509392505050565b600082601f830112611e7857611e77611d4b565b5b8135611e88848260208601611e21565b91505092915050565b600080600060608486031215611eaa57611ea9611ccb565b5b600084013567ffffffffffffffff811115611ec857611ec7611cd0565b5b611ed486828701611e63565b935050602084013567ffffffffffffffff811115611ef557611ef4611cd0565b5b611f0186828701611e63565b925050604084013567ffffffffffffffff811115611f2257611f21611cd0565b5b611f2e86828701611e63565b9150509250925092565b600060208284031215611f4e57611f4d611ccb565b5b6000611f5c84828501611cf6565b91505092915050565b611f6e81611cd5565b82525050565b6000602082019050611f896000830184611f65565b92915050565b600073ffffffffffffffffffffffffffffffffffffffff82169050919050565b6000611fba82611f8f565b9050919050565b611fca81611faf565b82525050565b600081519050919050565b600082825260208201905092915050565b60005b8381101561200a578082015181840152602081019050611fef565b83811115612019576000848401525b50505050565b600061202a82611fd0565b6120348185611fdb565b9350612044818560208601611fec565b61204d81611d55565b840191505092915050565b7f4e487b7100000000000000000000000000000000000000000000000000000000600052602160045260246000fd5b6003811061209857612097612058565b5b50565b60008190506120a982612087565b919050565b60006120b98261209b565b9050919050565b6120c9816120ae565b82525050565b600281106120e0576120df612058565b5b50565b60008190506120f1826120cf565b919050565b6000612101826120e3565b9050919050565b612111816120f6565b82525050565b60006101008201905061212d600083018b611fc1565b61213a602083018a611f65565b818103604083015261214c818961201f565b90508181036060830152612160818861201f565b90508181036080830152612174818761201f565b905061218360a0830186611f65565b61219060c08301856120c0565b61219d60e0830184612108565b9998505050505050505050565b600081519050919050565b600082825260208201905092915050565b6000819050602082019050919050565b6121df81611faf565b82525050565b60006121f183836121d6565b60208301905092915050565b6000602082019050919050565b6000612215826121aa565b61221f81856121b5565b935061222a836121c6565b8060005b8381101561225b57815161224288826121e5565b975061224d836121fd565b92505060018101905061222e565b5085935050505092915050565b60006020820190508181036000830152612282818461220a565b905092915050565b61229381611faf565b811461229e57600080fd5b50565b6000813590506122b08161228a565b92915050565b6000602082840312156122cc576122cb611ccb565b5b60006122da848285016122a1565b91505092915050565b600080600080608085870312156122fd576122fc611ccb565b5b600061230b87828801611cf6565b945050602061231c87828801611cf6565b935050604061232d87828801611cf6565b925050606061233e87828801611cf6565b91505092959194509250565b6004811061235b5761235a612058565b5b50565b600081905061236c8261234a565b919050565b600061237c8261235e565b9050919050565b61238c81612371565b82525050565b6000610180820190506123a8600083018f611f65565b6123b5602083018e611fc1565b6123c2604083018d611f65565b81810360608301526123d4818c61201f565b90506123e3608083018b611f65565b6123f060a083018a611f65565b6123fd60c0830189611f65565b61240a60e0830188611fc1565b612418610100830187611f65565b612426610120830186611f65565b612434610140830185611f65565b612442610160830184612383565b9d9c50505050505050505050505050565b7f4e6f7020746f206e6f7000000000000000000000000000000000000000000000600082015250565b6000612489600a83611fdb565b915061249482612453565b602082019050919050565b600060208201905081810360008301526124b88161247c565b9050919050565b7f4e487b7100000000000000000000000000000000000000000000000000000000600052603260045260246000fd5b7f556e737461727465640000000000000000000000000000000000000000000000600082015250565b6000612524600983611fdb565b915061252f826124ee565b602082019050919050565b6000602082019050818103600083015261255381612517565b9050919050565b7f41756374696f6e20656e64656400000000000000000000000000000000000000600082015250565b6000612590600d83611fdb565b915061259b8261255a565b602082019050919050565b600060208201905081810360008301526125bf81612583565b9050919050565b7f42696420746f6f206c6f77000000000000000000000000000000000000000000600082015250565b60006125fc600b83611fdb565b9150612607826125c6565b602082019050919050565b6000602082019050818103600083015261262b816125ef565b9050919050565b7f4e487b7100000000000000000000000000000000000000000000000000000000600052601160045260246000fd5b600061266c82611cd5565b915061267783611cd5565b9250827fffffffffffffffffffffffffffffffffffffffffffffffffffffffffffffffff038211156126ac576126ab612632565b5b828201905092915050565b60006080820190506126cc6000830187611f65565b6126d96020830186611fc1565b6126e66040830185611f65565b6126f36060830184611f65565b95945050505050565b60006040820190506127116000830185611f65565b61271e6020830184612383565b9392505050565b600061273082611cd5565b91507fffffffffffffffffffffffffffffffffffffffffffffffffffffffffffffffff82141561276357612762612632565b5b600182019050919050565b7f4e487b7100000000000000000000000000000000000000000000000000000000600052602260045260246000fd5b600060028204905060018216806127b557607f821691505b602082108114156127c9576127c861276e565b5b50919050565b7f456e64203c3d20426567696e0000000000000000000000000000000000000000600082015250565b6000612805600c83611fdb565b9150612810826127cf565b602082019050919050565b60006020820190508181036000830152612834816127f8565b9050919050565b7f626964696e670000000000000000000000000000000000000000000000000000600082015250565b6000612871600683611fdb565b915061287c8261283b565b602082019050919050565b600060208201905081810360008301526128a081612864565b905091905056fea2646970667358221220ac63752aae21fefb05d64902ab8af1472e2883ee58336ed6e1f04c93486f489264736f6c63430008090033",
  "immutableReferences": {},
  "source": "// SPDX-License-Identifier: MIT\r\npragma solidity ^0.8.8;\r\n\r\ncontract Auction {\r\n    enum Status { Open, Sold, Unsold }\r\n    enum Conditions { New, Used }\r\n    enum AucStatus { unstart, biding, end, allend }\r\n\r\n    uint public numTic = 0;\r\n    Tic[] public Tics;\r\n    uint public numAuc = 0;\r\n    mAuction[] public Auctions;\r\n\r\n    // \r\n    struct Bid {\r\n        address bidder;\r\n        uint ticid;\r\n        uint value;\r\n        bool revealed;\r\n    }\r\n\r\n    // NFT\r\n    struct Tic {\r\n        address owner;\r\n        uint id;\r\n        string name;\r\n        string category;\r\n        string image;\r\n        uint Nowner;\r\n        Status statu;\r\n        Conditions condition;\r\n        address[] historyOwner;\r\n    }\r\n\r\n    struct mAuction {\r\n        uint Aucid;\r\n        address creater;\r\n        uint item;\r\n        string itemname;\r\n        uint timeBegin;\r\n        uint timeEnd;\r\n        uint startPrice;\r\n        address highestBidder;\r\n        uint highestBid;\r\n        uint secondBid;\r\n        uint totalBids;\r\n        AucStatus status;\r\n        address[] bids;\r\n    }\r\n\r\n    mapping(address=> uint)public pendingReturn;\r\n    \r\n    event HighestBidChanged(uint num, address bidder, uint price, uint timestamp);\r\n    event AuctionEnded(uint num, address beneficiary, address winner, uint price, uint timestamp);\r\n    event UpdateStatus(uint num, AucStatus sts);\r\n    event Claimed(uint num, address winner);\r\n\r\n    \r\n    function castTic(string memory _name, string memory _category, string memory _image) public returns (bool) {\r\n        Tics.push(Tic({\r\n            owner: msg.sender,\r\n            id: numTic,\r\n            name: _name,\r\n            category: _category,\r\n            image: _image,\r\n            Nowner: 1,\r\n            statu: Status.Open,\r\n            condition: Conditions.New,\r\n            historyOwner: new address[](0)\r\n        })\r\n        );\r\n        Tics[numTic].historyOwner.push(msg.sender);\r\n        numTic = numTic +1;\r\n        return true;\r\n    }\r\n\r\n    function newAuction(uint item, uint timeBegin, uint timeEnd, uint startPrice) public returns (bool) {\r\n        require(timeBegin <= timeEnd, \"End <= Begin\");\r\n        require(Tics[item].statu != Status.Sold, \"biding\");\r\n        Auctions.push(mAuction({\r\n            Aucid: numAuc,\r\n            creater: msg.sender,\r\n            item: item,\r\n            itemname: Tics[item].name,\r\n            timeBegin: timeBegin,\r\n            timeEnd: timeEnd,\r\n            startPrice: startPrice,\r\n            highestBidder: address(0),\r\n            highestBid: startPrice,\r\n            secondBid: startPrice,\r\n            totalBids: 0,\r\n            status: AucStatus.unstart,\r\n            bids: new address[](0)\r\n        })\r\n        );\r\n        Auctions[numAuc].status = (block.timestamp<timeBegin)?AucStatus.unstart:AucStatus.biding;\r\n        Auctions[numAuc].timeBegin = timeBegin;\r\n        Auctions[numAuc].timeEnd = timeEnd;\r\n        numAuc = numAuc + 1;\r\n        Tics[item].statu = Status.Sold;\r\n        return true;\r\n    }\r\n\r\n    function bidOnce(uint num, uint time) public payable{\r\n        mAuction storage auction = Auctions[num];\r\n        require(time >= auction.timeBegin, \"Unstarted\");\r\n        require(time <= auction.timeEnd, \"Auction ended\");\r\n        require(msg.value > auction.highestBid, \"Bid too low\");\r\n        \r\n        Auctions[num].totalBids += 1;\r\n        Auctions[num].bids.push(msg.sender);\r\n        if (Auctions[num].highestBidder != address(0)) {\r\n            pendingReturn[Auctions[num].highestBidder] += Auctions[num].highestBid;\r\n            Auctions[num].secondBid = Auctions[num].highestBid;\r\n        }\r\n\r\n        Auctions[num].highestBid = msg.value;\r\n        Auctions[num].highestBidder = msg.sender;\r\n        \r\n        emit HighestBidChanged(num, msg.sender, msg.value, time);\r\n    }\r\n\r\n    function withDraw() public payable returns(bool) {\r\n\r\n        require(pendingReturn[msg.sender] > 0, \"Nop to nop\");\r\n\r\n        uint amount = pendingReturn[msg.sender];\r\n        pendingReturn[msg.sender] = 0;\r\n\r\n        if (!payable(msg.sender).send(amount)) {\r\n            pendingReturn[msg.sender] = amount;\r\n            return false;\r\n        }\r\n        return true;\r\n    }\r\n\r\n    function endAuction(uint num, uint tic) public payable {\r\n        // mAuction storage auction = Auctions[num];\r\n        // Tic storage tic = Tics[auction.item];\r\n\r\n        // require(block.timestamp >= auction.timeEnd, \"No ending\");\r\n        // require(tic.statu == Status.Sold, \"unsolding\");\r\n\r\n        Auctions[num].status = AucStatus.allend;\r\n        if (Auctions[num].highestBidder == address(0)) {\r\n            Tics[tic].statu = Status.Unsold;\r\n        }\r\n        else {\r\n            payable(Auctions[num].creater).transfer(Auctions[num].highestBid);\r\n        }\r\n    }\r\n\r\n    function claim(uint num, uint tic) public returns(bool){\r\n        // uint tic = Auctions[num].item;\r\n\r\n        // require(auction.highestBidder == msg.sender, \"not the winner\");\r\n        // require(auction.status == AucStatus.end, \"not ending\");\r\n\r\n        Auctions[num].status = AucStatus.end;\r\n\r\n        Tics[tic].historyOwner.push(msg.sender);\r\n        Tics[tic].owner = msg.sender;\r\n        Tics[tic].statu = Status.Open;\r\n        Tics[tic].condition = Conditions.Used;\r\n\r\n        // emit Claimed(num, msg.sender);\r\n        return true;\r\n    }\r\n\r\n    function getHistory(uint index) view public returns(address[] memory history) {\r\n        return Tics[index].historyOwner;\r\n    }\r\n\r\n    function checkout(uint c) public returns(bool){\r\n        bool res = false;\r\n        for (uint i=0; i<numAuc; i++) {\r\n            if (c>=Auctions[i].timeBegin && Auctions[i].status == AucStatus.unstart) {\r\n                Auctions[i].status = AucStatus.biding;\r\n                res = true;\r\n                emit UpdateStatus(i, AucStatus.biding);\r\n            }\r\n            if (c>=Auctions[i].timeEnd && Auctions[i].status != AucStatus.end) {\r\n                Auctions[i].status = AucStatus.end;\r\n                res = true;\r\n                emit UpdateStatus(i, AucStatus.end);\r\n            }\r\n        }\r\n        return res;\r\n    }\r\n}",
  "sourcePath": "D:\\study\\computer\\blockchain\\project\\ticauc\\src\\contracts\\Auction.sol",
  "compiler": {
    "name": "solc",
    "version": "0.8.9+commit.e5eed63a.Emscripten.clang"
  },
  "schemaVersion": "3.4.3",
  "updatedAt": "2021-11-06T02:47:09.844Z",
  "networkType": "ethereum",
  "devdoc": {
    "kind": "dev",
    "methods": {},
    "version": 1
  },
  "userdoc": {
    "kind": "user",
    "methods": {},
    "version": 1
  }
}