{
  "contractName": "Auction",
  "abi": [
    {
      "anonymous": false,
      "inputs": [
        {
          "indexed": false,
          "internalType": "uint256",
          "name": "num",
          "type": "uint256"
        },
        {
          "indexed": false,
          "internalType": "address",
          "name": "beneficiary",
          "type": "address"
        },
        {
          "indexed": false,
          "internalType": "address",
          "name": "winner",
          "type": "address"
        },
        {
          "indexed": false,
          "internalType": "uint256",
          "name": "price",
          "type": "uint256"
        },
        {
          "indexed": false,
          "internalType": "uint256",
          "name": "timestamp",
          "type": "uint256"
        }
      ],
      "name": "AuctionEnded",
      "type": "event"
    },
    {
      "anonymous": false,
      "inputs": [
        {
          "indexed": false,
          "internalType": "uint256",
          "name": "num",
          "type": "uint256"
        },
        {
          "indexed": false,
          "internalType": "address",
          "name": "winner",
          "type": "address"
        }
      ],
      "name": "Claimed",
      "type": "event"
    },
    {
      "anonymous": false,
      "inputs": [
        {
          "indexed": false,
          "internalType": "uint256",
          "name": "num",
          "type": "uint256"
        },
        {
          "indexed": false,
          "internalType": "address",
          "name": "bidder",
          "type": "address"
        },
        {
          "indexed": false,
          "internalType": "uint256",
          "name": "price",
          "type": "uint256"
        },
        {
          "indexed": false,
          "internalType": "uint256",
          "name": "timestamp",
          "type": "uint256"
        }
      ],
      "name": "HighestBidChanged",
      "type": "event"
    },
    {
      "anonymous": false,
      "inputs": [
        {
          "indexed": false,
          "internalType": "uint256",
          "name": "num",
          "type": "uint256"
        },
        {
          "indexed": false,
          "internalType": "enum Auction.AucStatus",
          "name": "sts",
          "type": "uint8"
        }
      ],
      "name": "UpdateStatus",
      "type": "event"
    },
    {
      "inputs": [
        {
          "internalType": "uint256",
          "name": "",
          "type": "uint256"
        }
      ],
      "name": "Auctions",
      "outputs": [
        {
          "internalType": "uint256",
          "name": "Aucid",
          "type": "uint256"
        },
        {
          "internalType": "address",
          "name": "creater",
          "type": "address"
        },
        {
          "internalType": "uint256",
          "name": "item",
          "type": "uint256"
        },
        {
          "internalType": "uint256",
          "name": "timeBegin",
          "type": "uint256"
        },
        {
          "internalType": "uint256",
          "name": "timeEnd",
          "type": "uint256"
        },
        {
          "internalType": "uint256",
          "name": "startPrice",
          "type": "uint256"
        },
        {
          "internalType": "address",
          "name": "highestBidder",
          "type": "address"
        },
        {
          "internalType": "uint256",
          "name": "highestBid",
          "type": "uint256"
        },
        {
          "internalType": "uint256",
          "name": "secondBid",
          "type": "uint256"
        },
        {
          "internalType": "uint256",
          "name": "totalBids",
          "type": "uint256"
        },
        {
          "internalType": "enum Auction.AucStatus",
          "name": "status",
          "type": "uint8"
        }
      ],
      "stateMutability": "view",
      "type": "function"
    },
    {
      "inputs": [
        {
          "internalType": "uint256",
          "name": "",
          "type": "uint256"
        }
      ],
      "name": "Tics",
      "outputs": [
        {
          "internalType": "address",
          "name": "owner",
          "type": "address"
        },
        {
          "internalType": "uint256",
          "name": "id",
          "type": "uint256"
        },
        {
          "internalType": "string",
          "name": "name",
          "type": "string"
        },
        {
          "internalType": "string",
          "name": "category",
          "type": "string"
        },
        {
          "internalType": "string",
          "name": "image",
          "type": "string"
        },
        {
          "internalType": "uint256",
          "name": "Nowner",
          "type": "uint256"
        },
        {
          "internalType": "enum Auction.Status",
          "name": "statu",
          "type": "uint8"
        },
        {
          "internalType": "enum Auction.Conditions",
          "name": "condition",
          "type": "uint8"
        }
      ],
      "stateMutability": "view",
      "type": "function"
    },
    {
      "inputs": [],
      "name": "numAuc",
      "outputs": [
        {
          "internalType": "uint256",
          "name": "",
          "type": "uint256"
        }
      ],
      "stateMutability": "view",
      "type": "function"
    },
    {
      "inputs": [],
      "name": "numTic",
      "outputs": [
        {
          "internalType": "uint256",
          "name": "",
          "type": "uint256"
        }
      ],
      "stateMutability": "view",
      "type": "function"
    },
    {
      "inputs": [
        {
          "internalType": "address",
          "name": "",
          "type": "address"
        }
      ],
      "name": "pendingReturn",
      "outputs": [
        {
          "internalType": "uint256",
          "name": "",
          "type": "uint256"
        }
      ],
      "stateMutability": "view",
      "type": "function"
    },
    {
      "inputs": [
        {
          "internalType": "string",
          "name": "_name",
          "type": "string"
        },
        {
          "internalType": "string",
          "name": "_category",
          "type": "string"
        },
        {
          "internalType": "string",
          "name": "_image",
          "type": "string"
        }
      ],
      "name": "castTic",
      "outputs": [
        {
          "internalType": "bool",
          "name": "",
          "type": "bool"
        }
      ],
      "stateMutability": "nonpayable",
      "type": "function"
    },
    {
      "inputs": [
        {
          "internalType": "uint256",
          "name": "item",
          "type": "uint256"
        },
        {
          "internalType": "uint256",
          "name": "timeBegin",
          "type": "uint256"
        },
        {
          "internalType": "uint256",
          "name": "timeEnd",
          "type": "uint256"
        },
        {
          "internalType": "uint256",
          "name": "startPrice",
          "type": "uint256"
        }
      ],
      "name": "newAuction",
      "outputs": [
        {
          "internalType": "bool",
          "name": "",
          "type": "bool"
        }
      ],
      "stateMutability": "nonpayable",
      "type": "function"
    },
    {
      "inputs": [
        {
          "internalType": "uint256",
          "name": "num",
          "type": "uint256"
        },
        {
          "internalType": "uint256",
          "name": "time",
          "type": "uint256"
        }
      ],
      "name": "bidOnce",
      "outputs": [],
      "stateMutability": "payable",
      "type": "function"
    },
    {
      "inputs": [],
      "name": "withDraw",
      "outputs": [
        {
          "internalType": "bool",
          "name": "",
          "type": "bool"
        }
      ],
      "stateMutability": "payable",
      "type": "function"
    },
    {
      "inputs": [
        {
          "internalType": "uint256",
          "name": "num",
          "type": "uint256"
        },
        {
          "internalType": "uint256",
          "name": "tic",
          "type": "uint256"
        }
      ],
      "name": "endAuction",
      "outputs": [],
      "stateMutability": "payable",
      "type": "function"
    },
    {
      "inputs": [
        {
          "internalType": "uint256",
          "name": "num",
          "type": "uint256"
        },
        {
          "internalType": "uint256",
          "name": "tic",
          "type": "uint256"
        }
      ],
      "name": "claim",
      "outputs": [
        {
          "internalType": "bool",
          "name": "",
          "type": "bool"
        }
      ],
      "stateMutability": "nonpayable",
      "type": "function"
    },
    {
      "inputs": [
        {
          "internalType": "uint256",
          "name": "index",
          "type": "uint256"
        }
      ],
      "name": "getHistory",
      "outputs": [
        {
          "internalType": "address[]",
          "name": "history",
          "type": "address[]"
        }
      ],
      "stateMutability": "view",
      "type": "function"
    },
    {
      "inputs": [
        {
          "internalType": "uint256",
          "name": "c",
          "type": "uint256"
        }
      ],
      "name": "checkout",
      "outputs": [
        {
          "internalType": "bool",
          "name": "",
          "type": "bool"
        }
      ],
      "stateMutability": "nonpayable",
      "type": "function"
    }
  ],
  "bytecode": "0x608060405260008055600060025534801561001957600080fd5b50612766806100296000396000f3fe6080604052600436106100c25760003560e01c8063c34902631161007f578063c937f9fd11610059578063c937f9fd14610280578063cfc1274a146102bd578063d45eb1b2146102e8578063e8cd181f14610325576100c2565b8063c3490263146101c2578063c7523483146101ff578063c8691b2a14610243576100c2565b80630fdb1c10146100c75780631cda50bd146100e5578063437e72df1461010157806347afe4371461013e5780634c9ba8521461015a57806380a47d7914610197575b600080fd5b6100cf61036c565b6040516100dc9190611b45565b60405180910390f35b6100ff60048036038101906100fa9190611baa565b610508565b005b34801561010d57600080fd5b5061012860048036038101906101239190611d30565b61091e565b6040516101359190611b45565b60405180910390f35b61015860048036038101906101539190611baa565b610bed565b005b34801561016657600080fd5b50610181600480360381019061017c9190611dd7565b610dbd565b60405161018e9190611b45565b60405180910390f35b3480156101a357600080fd5b506101ac611028565b6040516101b99190611e13565b60405180910390f35b3480156101ce57600080fd5b506101e960048036038101906101e49190611baa565b61102e565b6040516101f69190611b45565b60405180910390f35b34801561020b57600080fd5b5061022660048036038101906102219190611dd7565b61120d565b60405161023a989796959493929190611fb6565b60405180910390f35b34801561024f57600080fd5b5061026a60048036038101906102659190611dd7565b611437565b6040516102779190612107565b60405180910390f35b34801561028c57600080fd5b506102a760048036038101906102a29190612155565b6114ea565b6040516102b49190611e13565b60405180910390f35b3480156102c957600080fd5b506102d2611502565b6040516102df9190611e13565b60405180910390f35b3480156102f457600080fd5b5061030f600480360381019061030a9190612182565b611508565b60405161031c9190611b45565b60405180910390f35b34801561033157600080fd5b5061034c60048036038101906103479190611dd7565b611946565b6040516103639b9a99989796959493929190612231565b60405180910390f35b600080600460003373ffffffffffffffffffffffffffffffffffffffff1673ffffffffffffffffffffffffffffffffffffffff16815260200190815260200160002054116103ef576040517f08c379a00000000000000000000000000000000000000000000000000000000081526004016103e690612328565b60405180910390fd5b6000600460003373ffffffffffffffffffffffffffffffffffffffff1673ffffffffffffffffffffffffffffffffffffffff1681526020019081526020016000205490506000600460003373ffffffffffffffffffffffffffffffffffffffff1673ffffffffffffffffffffffffffffffffffffffff168152602001908152602001600020819055503373ffffffffffffffffffffffffffffffffffffffff166108fc829081150290604051600060405180830381858888f193505050506104ff5780600460003373ffffffffffffffffffffffffffffffffffffffff1673ffffffffffffffffffffffffffffffffffffffff168152602001908152602001600020819055506000915050610505565b60019150505b90565b60006003838154811061051e5761051d612348565b5b90600052602060002090600c020190508060030154821015610575576040517f08c379a000000000000000000000000000000000000000000000000000000000815260040161056c906123c3565b60405180910390fd5b80600401548211156105bc576040517f08c379a00000000000000000000000000000000000000000000000000000000081526004016105b39061242f565b60405180910390fd5b80600701543411610602576040517f08c379a00000000000000000000000000000000000000000000000000000000081526004016105f99061249b565b60405180910390fd5b60016003848154811061061857610617612348565b5b90600052602060002090600c0201600901600082825461063891906124ea565b925050819055506003838154811061065357610652612348565b5b90600052602060002090600c0201600b01339080600181540180825580915050600190039060005260206000200160009091909190916101000a81548173ffffffffffffffffffffffffffffffffffffffff021916908373ffffffffffffffffffffffffffffffffffffffff160217905550600073ffffffffffffffffffffffffffffffffffffffff16600384815481106106f1576106f0612348565b5b90600052602060002090600c020160060160009054906101000a900473ffffffffffffffffffffffffffffffffffffffff1673ffffffffffffffffffffffffffffffffffffffff161461084e576003838154811061075257610751612348565b5b90600052602060002090600c020160070154600460006003868154811061077c5761077b612348565b5b90600052602060002090600c020160060160009054906101000a900473ffffffffffffffffffffffffffffffffffffffff1673ffffffffffffffffffffffffffffffffffffffff1673ffffffffffffffffffffffffffffffffffffffff16815260200190815260200160002060008282546107f791906124ea565b925050819055506003838154811061081257610811612348565b5b90600052602060002090600c0201600701546003848154811061083857610837612348565b5b90600052602060002090600c0201600801819055505b346003848154811061086357610862612348565b5b90600052602060002090600c020160070181905550336003848154811061088d5761088c612348565b5b90600052602060002090600c020160060160006101000a81548173ffffffffffffffffffffffffffffffffffffffff021916908373ffffffffffffffffffffffffffffffffffffffff1602179055507f56d10dde7862e7ff93cbde055d02c8c9aceb39cef97de0cd2b533f45fa738196833334856040516109119493929190612540565b60405180910390a1505050565b600060016040518061012001604052803373ffffffffffffffffffffffffffffffffffffffff1681526020016000548152602001868152602001858152602001848152602001600181526020016000600281111561097f5761097e611ef7565b5b81526020016000600181111561099857610997611ef7565b5b8152602001600067ffffffffffffffff8111156109b8576109b7611c05565b5b6040519080825280602002602001820160405280156109e65781602001602082028036833780820191505090505b50815250908060018154018082558091505060019003906000526020600020906008020160009091909190915060008201518160000160006101000a81548173ffffffffffffffffffffffffffffffffffffffff021916908373ffffffffffffffffffffffffffffffffffffffff160217905550602082015181600101556040820151816002019080519060200190610a809291906119fd565b506060820151816003019080519060200190610a9d9291906119fd565b506080820151816004019080519060200190610aba9291906119fd565b5060a0820151816005015560c08201518160060160006101000a81548160ff02191690836002811115610af057610aef611ef7565b5b021790555060e08201518160060160016101000a81548160ff02191690836001811115610b2057610b1f611ef7565b5b0217905550610100820151816007019080519060200190610b42929190611a83565b505050600160005481548110610b5b57610b5a612348565b5b9060005260206000209060080201600701339080600181540180825580915050600190039060005260206000200160009091909190916101000a81548173ffffffffffffffffffffffffffffffffffffffff021916908373ffffffffffffffffffffffffffffffffffffffff1602179055506001600054610bdc91906124ea565b600081905550600190509392505050565b600260038381548110610c0357610c02612348565b5b90600052602060002090600c0201600a0160006101000a81548160ff02191690836002811115610c3657610c35611ef7565b5b02179055503373ffffffffffffffffffffffffffffffffffffffff1660038381548110610c6657610c65612348565b5b90600052602060002090600c020160060160009054906101000a900473ffffffffffffffffffffffffffffffffffffffff1673ffffffffffffffffffffffffffffffffffffffff161415610d0757600260018281548110610cca57610cc9612348565b5b906000526020600020906008020160060160006101000a81548160ff02191690836002811115610cfd57610cfc611ef7565b5b0217905550610db9565b60038281548110610d1b57610d1a612348565b5b90600052602060002090600c020160010160009054906101000a900473ffffffffffffffffffffffffffffffffffffffff1673ffffffffffffffffffffffffffffffffffffffff166108fc60038481548110610d7a57610d79612348565b5b90600052602060002090600c0201600701549081150290604051600060405180830381858888f19350505050158015610db7573d6000803e3d6000fd5b505b5050565b6000806000905060005b60025481101561101e5760038181548110610de557610de4612348565b5b90600052602060002090600c0201600301548410158015610e5c575060006002811115610e1557610e14611ef7565b5b60038281548110610e2957610e28612348565b5b90600052602060002090600c0201600a0160009054906101000a900460ff166002811115610e5a57610e59611ef7565b5b145b15610eee57600160038281548110610e7757610e76612348565b5b90600052602060002090600c0201600a0160006101000a81548160ff02191690836002811115610eaa57610ea9611ef7565b5b0217905550600191507f1ec5c05690dbdf3fe6eeaa13c3026d2706bba8ff773391bf70f15b407fb16588816001604051610ee5929190612585565b60405180910390a15b60038181548110610f0257610f01612348565b5b90600052602060002090600c0201600401548410158015610f795750600280811115610f3157610f30611ef7565b5b60038281548110610f4557610f44612348565b5b90600052602060002090600c0201600a0160009054906101000a900460ff166002811115610f7657610f75611ef7565b5b14155b1561100b57600260038281548110610f9457610f93612348565b5b90600052602060002090600c0201600a0160006101000a81548160ff02191690836002811115610fc757610fc6611ef7565b5b0217905550600191507f1ec5c05690dbdf3fe6eeaa13c3026d2706bba8ff773391bf70f15b407fb16588816002604051611002929190612585565b60405180910390a15b8080611016906125ae565b915050610dc7565b5080915050919050565b60025481565b600060026003848154811061104657611045612348565b5b90600052602060002090600c0201600a0160006101000a81548160ff0219169083600281111561107957611078611ef7565b5b02179055506001828154811061109257611091612348565b5b9060005260206000209060080201600701339080600181540180825580915050600190039060005260206000200160009091909190916101000a81548173ffffffffffffffffffffffffffffffffffffffff021916908373ffffffffffffffffffffffffffffffffffffffff160217905550336001838154811061111957611118612348565b5b906000526020600020906008020160000160006101000a81548173ffffffffffffffffffffffffffffffffffffffff021916908373ffffffffffffffffffffffffffffffffffffffff16021790555060006001838154811061117e5761117d612348565b5b906000526020600020906008020160060160006101000a81548160ff021916908360028111156111b1576111b0611ef7565b5b021790555060018083815481106111cb576111ca612348565b5b906000526020600020906008020160060160016101000a81548160ff021916908360018111156111fe576111fd611ef7565b5b02179055506001905092915050565b6001818154811061121d57600080fd5b90600052602060002090600802016000915090508060000160009054906101000a900473ffffffffffffffffffffffffffffffffffffffff169080600101549080600201805461126c90612626565b80601f016020809104026020016040519081016040528092919081815260200182805461129890612626565b80156112e55780601f106112ba576101008083540402835291602001916112e5565b820191906000526020600020905b8154815290600101906020018083116112c857829003601f168201915b5050505050908060030180546112fa90612626565b80601f016020809104026020016040519081016040528092919081815260200182805461132690612626565b80156113735780601f1061134857610100808354040283529160200191611373565b820191906000526020600020905b81548152906001019060200180831161135657829003601f168201915b50505050509080600401805461138890612626565b80601f01602080910402602001604051908101604052809291908181526020018280546113b490612626565b80156114015780601f106113d657610100808354040283529160200191611401565b820191906000526020600020905b8154815290600101906020018083116113e457829003601f168201915b5050505050908060050154908060060160009054906101000a900460ff16908060060160019054906101000a900460ff16905088565b60606001828154811061144d5761144c612348565b5b90600052602060002090600802016007018054806020026020016040519081016040528092919081815260200182805480156114de57602002820191906000526020600020905b8160009054906101000a900473ffffffffffffffffffffffffffffffffffffffff1673ffffffffffffffffffffffffffffffffffffffff1681526020019060010190808311611494575b50505050509050919050565b60046020528060005260406000206000915090505481565b60005481565b60008284111561154d576040517f08c379a0000000000000000000000000000000000000000000000000000000008152600401611544906126a4565b60405180910390fd5b6001600281111561156157611560611ef7565b5b6001868154811061157557611574612348565b5b906000526020600020906008020160060160009054906101000a900460ff1660028111156115a6576115a5611ef7565b5b14156115e7576040517f08c379a00000000000000000000000000000000000000000000000000000000081526004016115de90612710565b60405180910390fd5b600360405180610180016040528060025481526020013373ffffffffffffffffffffffffffffffffffffffff168152602001878152602001868152602001858152602001848152602001600073ffffffffffffffffffffffffffffffffffffffff168152602001848152602001848152602001600081526020016000600281111561167557611674611ef7565b5b8152602001600067ffffffffffffffff81111561169557611694611c05565b5b6040519080825280602002602001820160405280156116c35781602001602082028036833780820191505090505b5081525090806001815401808255809150506001900390600052602060002090600c02016000909190919091506000820151816000015560208201518160010160006101000a81548173ffffffffffffffffffffffffffffffffffffffff021916908373ffffffffffffffffffffffffffffffffffffffff16021790555060408201518160020155606082015181600301556080820151816004015560a0820151816005015560c08201518160060160006101000a81548173ffffffffffffffffffffffffffffffffffffffff021916908373ffffffffffffffffffffffffffffffffffffffff16021790555060e082015181600701556101008201518160080155610120820151816009015561014082015181600a0160006101000a81548160ff021916908360028111156117fc576117fb611ef7565b5b021790555061016082015181600b01908051906020019061181e929190611a83565b50505083421061182f576001611832565b60005b60036002548154811061184857611847612348565b5b90600052602060002090600c0201600a0160006101000a81548160ff0219169083600281111561187b5761187a611ef7565b5b02179055508360036002548154811061189757611896612348565b5b90600052602060002090600c020160030181905550826003600254815481106118c3576118c2612348565b5b90600052602060002090600c02016004018190555060016002546118e791906124ea565b600281905550600180868154811061190257611901612348565b5b906000526020600020906008020160060160006101000a81548160ff0219169083600281111561193557611934611ef7565b5b021790555060019050949350505050565b6003818154811061195657600080fd5b90600052602060002090600c02016000915090508060000154908060010160009054906101000a900473ffffffffffffffffffffffffffffffffffffffff16908060020154908060030154908060040154908060050154908060060160009054906101000a900473ffffffffffffffffffffffffffffffffffffffff169080600701549080600801549080600901549080600a0160009054906101000a900460ff1690508b565b828054611a0990612626565b90600052602060002090601f016020900481019282611a2b5760008555611a72565b82601f10611a4457805160ff1916838001178555611a72565b82800160010185558215611a72579182015b82811115611a71578251825591602001919060010190611a56565b5b509050611a7f9190611b0d565b5090565b828054828255906000526020600020908101928215611afc579160200282015b82811115611afb5782518260006101000a81548173ffffffffffffffffffffffffffffffffffffffff021916908373ffffffffffffffffffffffffffffffffffffffff16021790555091602001919060010190611aa3565b5b509050611b099190611b0d565b5090565b5b80821115611b26576000816000905550600101611b0e565b5090565b60008115159050919050565b611b3f81611b2a565b82525050565b6000602082019050611b5a6000830184611b36565b92915050565b6000604051905090565b600080fd5b600080fd5b6000819050919050565b611b8781611b74565b8114611b9257600080fd5b50565b600081359050611ba481611b7e565b92915050565b60008060408385031215611bc157611bc0611b6a565b5b6000611bcf85828601611b95565b9250506020611be085828601611b95565b9150509250929050565b600080fd5b600080fd5b6000601f19601f8301169050919050565b7f4e487b7100000000000000000000000000000000000000000000000000000000600052604160045260246000fd5b611c3d82611bf4565b810181811067ffffffffffffffff82111715611c5c57611c5b611c05565b5b80604052505050565b6000611c6f611b60565b9050611c7b8282611c34565b919050565b600067ffffffffffffffff821115611c9b57611c9a611c05565b5b611ca482611bf4565b9050602081019050919050565b82818337600083830152505050565b6000611cd3611cce84611c80565b611c65565b905082815260208101848484011115611cef57611cee611bef565b5b611cfa848285611cb1565b509392505050565b600082601f830112611d1757611d16611bea565b5b8135611d27848260208601611cc0565b91505092915050565b600080600060608486031215611d4957611d48611b6a565b5b600084013567ffffffffffffffff811115611d6757611d66611b6f565b5b611d7386828701611d02565b935050602084013567ffffffffffffffff811115611d9457611d93611b6f565b5b611da086828701611d02565b925050604084013567ffffffffffffffff811115611dc157611dc0611b6f565b5b611dcd86828701611d02565b9150509250925092565b600060208284031215611ded57611dec611b6a565b5b6000611dfb84828501611b95565b91505092915050565b611e0d81611b74565b82525050565b6000602082019050611e286000830184611e04565b92915050565b600073ffffffffffffffffffffffffffffffffffffffff82169050919050565b6000611e5982611e2e565b9050919050565b611e6981611e4e565b82525050565b600081519050919050565b600082825260208201905092915050565b60005b83811015611ea9578082015181840152602081019050611e8e565b83811115611eb8576000848401525b50505050565b6000611ec982611e6f565b611ed38185611e7a565b9350611ee3818560208601611e8b565b611eec81611bf4565b840191505092915050565b7f4e487b7100000000000000000000000000000000000000000000000000000000600052602160045260246000fd5b60038110611f3757611f36611ef7565b5b50565b6000819050611f4882611f26565b919050565b6000611f5882611f3a565b9050919050565b611f6881611f4d565b82525050565b60028110611f7f57611f7e611ef7565b5b50565b6000819050611f9082611f6e565b919050565b6000611fa082611f82565b9050919050565b611fb081611f95565b82525050565b600061010082019050611fcc600083018b611e60565b611fd9602083018a611e04565b8181036040830152611feb8189611ebe565b90508181036060830152611fff8188611ebe565b905081810360808301526120138187611ebe565b905061202260a0830186611e04565b61202f60c0830185611f5f565b61203c60e0830184611fa7565b9998505050505050505050565b600081519050919050565b600082825260208201905092915050565b6000819050602082019050919050565b61207e81611e4e565b82525050565b60006120908383612075565b60208301905092915050565b6000602082019050919050565b60006120b482612049565b6120be8185612054565b93506120c983612065565b8060005b838110156120fa5781516120e18882612084565b97506120ec8361209c565b9250506001810190506120cd565b5085935050505092915050565b6000602082019050818103600083015261212181846120a9565b905092915050565b61213281611e4e565b811461213d57600080fd5b50565b60008135905061214f81612129565b92915050565b60006020828403121561216b5761216a611b6a565b5b600061217984828501612140565b91505092915050565b6000806000806080858703121561219c5761219b611b6a565b5b60006121aa87828801611b95565b94505060206121bb87828801611b95565b93505060406121cc87828801611b95565b92505060606121dd87828801611b95565b91505092959194509250565b600381106121fa576121f9611ef7565b5b50565b600081905061220b826121e9565b919050565b600061221b826121fd565b9050919050565b61222b81612210565b82525050565b600061016082019050612247600083018e611e04565b612254602083018d611e60565b612261604083018c611e04565b61226e606083018b611e04565b61227b608083018a611e04565b61228860a0830189611e04565b61229560c0830188611e60565b6122a260e0830187611e04565b6122b0610100830186611e04565b6122be610120830185611e04565b6122cc610140830184612222565b9c9b505050505050505050505050565b7f4e6f7020746f206e6f7000000000000000000000000000000000000000000000600082015250565b6000612312600a83611e7a565b915061231d826122dc565b602082019050919050565b6000602082019050818103600083015261234181612305565b9050919050565b7f4e487b7100000000000000000000000000000000000000000000000000000000600052603260045260246000fd5b7f556e737461727465640000000000000000000000000000000000000000000000600082015250565b60006123ad600983611e7a565b91506123b882612377565b602082019050919050565b600060208201905081810360008301526123dc816123a0565b9050919050565b7f41756374696f6e20656e64656400000000000000000000000000000000000000600082015250565b6000612419600d83611e7a565b9150612424826123e3565b602082019050919050565b600060208201905081810360008301526124488161240c565b9050919050565b7f42696420746f6f206c6f77000000000000000000000000000000000000000000600082015250565b6000612485600b83611e7a565b91506124908261244f565b602082019050919050565b600060208201905081810360008301526124b481612478565b9050919050565b7f4e487b7100000000000000000000000000000000000000000000000000000000600052601160045260246000fd5b60006124f582611b74565b915061250083611b74565b9250827fffffffffffffffffffffffffffffffffffffffffffffffffffffffffffffffff03821115612535576125346124bb565b5b828201905092915050565b60006080820190506125556000830187611e04565b6125626020830186611e60565b61256f6040830185611e04565b61257c6060830184611e04565b95945050505050565b600060408201905061259a6000830185611e04565b6125a76020830184612222565b9392505050565b60006125b982611b74565b91507fffffffffffffffffffffffffffffffffffffffffffffffffffffffffffffffff8214156125ec576125eb6124bb565b5b600182019050919050565b7f4e487b7100000000000000000000000000000000000000000000000000000000600052602260045260246000fd5b6000600282049050600182168061263e57607f821691505b60208210811415612652576126516125f7565b5b50919050565b7f456e64203c3d20426567696e0000000000000000000000000000000000000000600082015250565b600061268e600c83611e7a565b915061269982612658565b602082019050919050565b600060208201905081810360008301526126bd81612681565b9050919050565b7f626964696e670000000000000000000000000000000000000000000000000000600082015250565b60006126fa600683611e7a565b9150612705826126c4565b602082019050919050565b60006020820190508181036000830152612729816126ed565b905091905056fea2646970667358221220aa0cbdab8eb1c9f0471370f099603a8b89acb015aa1f02e30c4ec182933f24bb64736f6c63430008090033",
  "immutableReferences": {},
  "source": "// SPDX-License-Identifier: MIT\r\npragma solidity ^0.8.8;\r\n\r\ncontract Auction {\r\n    enum Status { Open, Sold, Unsold }\r\n    enum Conditions { New, Used }\r\n    enum AucStatus { unstart, biding, end }\r\n\r\n    uint public numTic = 0;\r\n    Tic[] public Tics;\r\n    uint public numAuc = 0;\r\n    mAuction[] public Auctions;\r\n\r\n    // \r\n    struct Bid {\r\n        address bidder;\r\n        uint ticid;\r\n        uint value;\r\n        bool revealed;\r\n    }\r\n\r\n    // NFT\r\n    struct Tic {\r\n        address owner;\r\n        uint id;\r\n        string name;\r\n        string category;\r\n        string image;\r\n        uint Nowner;\r\n        Status statu;\r\n        Conditions condition;\r\n        address[] historyOwner;\r\n    }\r\n\r\n    struct mAuction {\r\n        uint Aucid;\r\n        address creater;\r\n        uint item;\r\n        uint timeBegin;\r\n        uint timeEnd;\r\n        uint startPrice;\r\n        address highestBidder;\r\n        uint highestBid;\r\n        uint secondBid;\r\n        uint totalBids;\r\n        AucStatus status;\r\n        address[] bids;\r\n    }\r\n\r\n    mapping(address=> uint)public pendingReturn;\r\n    \r\n    event HighestBidChanged(uint num, address bidder, uint price, uint timestamp);\r\n    event AuctionEnded(uint num, address beneficiary, address winner, uint price, uint timestamp);\r\n    event UpdateStatus(uint num, AucStatus sts);\r\n    event Claimed(uint num, address winner);\r\n\r\n    \r\n    function castTic(string memory _name, string memory _category, string memory _image) public returns (bool) {\r\n        Tics.push(Tic({\r\n            owner: msg.sender,\r\n            id: numTic,\r\n            name: _name,\r\n            category: _category,\r\n            image: _image,\r\n            Nowner: 1,\r\n            statu: Status.Open,\r\n            condition: Conditions.New,\r\n            historyOwner: new address[](0)\r\n        })\r\n        );\r\n        Tics[numTic].historyOwner.push(msg.sender);\r\n        numTic = numTic +1;\r\n        return true;\r\n    }\r\n\r\n    function newAuction(uint item, uint timeBegin, uint timeEnd, uint startPrice) public returns (bool) {\r\n        require(timeBegin <= timeEnd, \"End <= Begin\");\r\n        require(Tics[item].statu != Status.Sold, \"biding\");\r\n        Auctions.push(mAuction({\r\n            Aucid: numAuc,\r\n            creater: msg.sender,\r\n            item: item,\r\n            timeBegin: timeBegin,\r\n            timeEnd: timeEnd,\r\n            startPrice: startPrice,\r\n            highestBidder: address(0),\r\n            highestBid: startPrice,\r\n            secondBid: startPrice,\r\n            totalBids: 0,\r\n            status: AucStatus.unstart,\r\n            bids: new address[](0)\r\n        })\r\n        );\r\n        Auctions[numAuc].status = (block.timestamp<timeBegin)?AucStatus.unstart:AucStatus.biding;\r\n        Auctions[numAuc].timeBegin = timeBegin;\r\n        Auctions[numAuc].timeEnd = timeEnd;\r\n        numAuc = numAuc + 1;\r\n        Tics[item].statu = Status.Sold;\r\n        return true;\r\n    }\r\n\r\n    function bidOnce(uint num, uint time) public payable{\r\n        mAuction storage auction = Auctions[num];\r\n        require(time >= auction.timeBegin, \"Unstarted\");\r\n        require(time <= auction.timeEnd, \"Auction ended\");\r\n        require(msg.value > auction.highestBid, \"Bid too low\");\r\n        \r\n        Auctions[num].totalBids += 1;\r\n        Auctions[num].bids.push(msg.sender);\r\n        if (Auctions[num].highestBidder != address(0)) {\r\n            pendingReturn[Auctions[num].highestBidder] += Auctions[num].highestBid;\r\n            Auctions[num].secondBid = Auctions[num].highestBid;\r\n        }\r\n\r\n        Auctions[num].highestBid = msg.value;\r\n        Auctions[num].highestBidder = msg.sender;\r\n        \r\n        emit HighestBidChanged(num, msg.sender, msg.value, time);\r\n    }\r\n\r\n    function withDraw() public payable returns(bool) {\r\n\r\n        require(pendingReturn[msg.sender] > 0, \"Nop to nop\");\r\n\r\n        uint amount = pendingReturn[msg.sender];\r\n        pendingReturn[msg.sender] = 0;\r\n\r\n        if (!payable(msg.sender).send(amount)) {\r\n            pendingReturn[msg.sender] = amount;\r\n            return false;\r\n        }\r\n        return true;\r\n    }\r\n\r\n    function endAuction(uint num, uint tic) public payable {\r\n        // mAuction storage auction = Auctions[num];\r\n        // Tic storage tic = Tics[auction.item];\r\n\r\n        // require(block.timestamp >= auction.timeEnd, \"No ending\");\r\n        // require(tic.statu == Status.Sold, \"unsolding\");\r\n\r\n        Auctions[num].status = AucStatus.end;\r\n        if (Auctions[num].highestBidder == msg.sender) {\r\n            Tics[tic].statu = Status.Unsold;\r\n        }\r\n        else {\r\n            payable(Auctions[num].creater).transfer(Auctions[num].highestBid);\r\n        }\r\n    }\r\n\r\n    function claim(uint num, uint tic) public returns(bool){\r\n        // uint tic = Auctions[num].item;\r\n\r\n        // require(auction.highestBidder == msg.sender, \"not the winner\");\r\n        // require(auction.status == AucStatus.end, \"not ending\");\r\n\r\n        Auctions[num].status = AucStatus.end;\r\n\r\n        Tics[tic].historyOwner.push(msg.sender);\r\n        Tics[tic].owner = msg.sender;\r\n        Tics[tic].statu = Status.Open;\r\n        Tics[tic].condition = Conditions.Used;\r\n\r\n        // emit Claimed(num, msg.sender);\r\n        return true;\r\n    }\r\n\r\n    function getHistory(uint index) view public returns(address[] memory history) {\r\n        return Tics[index].historyOwner;\r\n    }\r\n\r\n    function checkout(uint c) public returns(bool){\r\n        bool res = false;\r\n        for (uint i=0; i<numAuc; i++) {\r\n            if (c>=Auctions[i].timeBegin && Auctions[i].status == AucStatus.unstart) {\r\n                Auctions[i].status = AucStatus.biding;\r\n                res = true;\r\n                emit UpdateStatus(i, AucStatus.biding);\r\n            }\r\n            if (c>=Auctions[i].timeEnd && Auctions[i].status != AucStatus.end) {\r\n                Auctions[i].status = AucStatus.end;\r\n                res = true;\r\n                emit UpdateStatus(i, AucStatus.end);\r\n            }\r\n        }\r\n        return res;\r\n    }\r\n}",
  "sourcePath": "D:\\study\\computer\\blockchain\\project\\ticauc\\src\\contracts\\Auction.sol",
  "compiler": {
    "name": "solc",
    "version": "0.8.9+commit.e5eed63a.Emscripten.clang"
  },
  "schemaVersion": "3.4.3",
  "updatedAt": "2021-11-04T23:56:02.186Z",
  "devdoc": {
    "kind": "dev",
    "methods": {},
    "version": 1
  },
  "userdoc": {
    "kind": "user",
    "methods": {},
    "version": 1
  }
}